:1017000001C0000014E0ADE6B3E0E6EAF5E102C096
:1017100005900D92A43BB107D9F723E0AEE7B2E004
:1017200001C01D92AD36B207E1F7B4C2EDE4F1E0BD
:10173000108212AA1092B1011092E30110921502C8
:101740001092470208950F931F9300912103109167
:1017500022032091230330912403400F511F621F65
:10176000731FFC0140835183628373831F910F9128
:10177000089540EC57E269E070E087E693E0E3CF3C
:101780000F931F93FC0181E000811181228133813D
:10179000409121035091220360912303709124030F
:1017A000041715072607370708F080E01F910F91EF
:1017B0000895F89460913101709132018091330164
:1017C0009091340178940895E62FF0E0EE0FFF1F1A
:1017D000E050FF4F9183808308950F931F93CF9321
:1017E0008C01C0E06C2FC801EFDFCF5FC630D1F7AE
:1017F000CF911F910F9108958CE0E2E8F2E0A0E014
:10180000B1E001900D928A95E1F708958CE0E0E057
:10181000F1E0A2E8B2E001900D928A95E1F7089517
:101820002BE0829FC00111248A5D9C4FA9CF8EE7D7
:1018300092E0A6DF882331F140ED57E060E070E0F0
:101840008EE792E080DF80912B03806480932B03EE
:1018500080913603806480933603809141038064D5
:101860008093410380914C03806480934C0380916A
:101870005703806480935703809162038064809350
:10188000620377CF089580918E02882359F01092D9
:101890008E0281E090914101911103C081E080931B
:1018A0004101089580E0F6CF90916C03282F209598
:1018B000292320936C03982381E009F480E00895A4
:1018C00090912704909326049091280490932704E4
:1018D00080932804089587E0809329041092CA0217
:1018E0001092C3021092C8021092C90210921403FF
:1018F000809119038F7E8093190308951092190324
:10190000E0EEF2E0148211861686138A108E158E90
:10191000EAE1F3E0108211821282138214821582AE
:101920001092DF02D8DF10920603089548EB5BE0C7
:1019300060E070E08FEB92E006CF80910703869520
:101940008F7148E552E060E070E08F3020F048EEA3
:1019500053E060E070E08BED92E0F5CE40ED57E0B3
:1019600060E070E085ED92E0EECE40ED57E060E0A3
:1019700070E08DE093E0E7CE282F30E095E0899F7E
:10198000D0011124A052BD4F13968C9180FF15C039
:10199000D901AC54BD4F8C91833078F4F901EE0F2E
:1019A000FF1FE20FF31FE80FF11DEE0FFF1FE057BF
:1019B000FD4F608341838F5F8C930895EF92FF9278
:1019C0000F931F93CF93DF93C091CA028091290494
:1019D000873051F5CC2309F4B0C02091190321FFC1
:1019E000ACC090912003892F90E030912103E32F28
:1019F000E170F0E0880F991FE80FF91FEE0FFF1F4D
:101A000023FF6CC0E05BFB4F80818093290487300B
:101A100009F493C010928F021092170383E0809311
:101A2000160381E0809318034091C302809115034F
:101A3000480F4093C302442339F067E070E080917F
:101A400016039ADF1092C302C23008F476C0909158
:101A50001703E091290484E0E89FF0011124E9567E
:101A6000FB4F092F10E0000F111F20813181020F61
:101A7000131FDFEFDC0F81E08093CA02F801808141
:101A8000282F237071F590911803911152C087FD92
:101A9000D695DD2309F451C0C091130382E0F82EDE
:101AA000FC0ECB5FEE24E394F8018181877090E017
:101AB00030E08E219323892B61F0E0911603F0E052
:101AC000E45DFB4FEF0DF11D4D2F64E070E0808170
:101AD00053DFF394EE0CFC12E7CF2FC0E85CFB4F12
:101AE00093CFD33040F120911803222329F0109294
:101AF0001803DCEFDC0FCBCF84FF06C02091C802B7
:101B0000211114C09093C802282F2370382F3C70E5
:101B100049F03091210330FF05C0382F36953695B6
:101B20003370230F920F90931703E3CF9093C90262
:101B3000EBCFD330E0F6C093CA02DF91CF911F9173
:101B40000F91FF90EF9008951F93CF93DF93109123
:101B50002003C12FD3E04D2F63E070E08C2F0CDF0A
:101B6000D150D7FDD5E0CF5FC63008F0C0E0C1133B
:101B7000F2CFDF91CF911F910895282F30E0F90126
:101B8000EC54FD4F108295E0899FF0011124E05242
:101B9000FD4F10828BE0829FF001839FF00D112496
:101BA000EB5DFC4F1582089518DE0C94101CCF924B
:101BB000DF92EF92FF92CF93DF930E94141C26DEF8
:101BC000D5E0C0E081E098EFEFDF42E067E074E04D
:101BD0008C2F0E94081CCF5FC630A1F7D15089F727
:101BE00081E090E0E1DFF894C0903101D0903201C3
:101BF000E0903301F0903401789410923F0196DD2B
:101C000081E08093410180913F0180FF28C0F894DA
:101C1000C0923101D0923201E0923301F09234014E
:101C20000E94141C789481E080938E02A2DD7EDDF8
:101C3000D5E0C0E08FEF9FEFB7DF42E065E074E0F2
:101C40008C2F0E94081CCF5FC630A1F7D15089F7B6
:101C5000DF91CF91FF90EF90DF90CF90CDCD80912D
:101C600041018823A1F2EDE4F1E080E09081992325
:101C700041F09481933321F49581933309F481E009
:101C80001082F29692E0E937F90781F7882309F488
:101C9000BACFBDCFCF93DF9300D01F92CDB7DEB7C1
:101CA00081E08093410185DD6093210370932203DD
:101CB00080932303909324035CDD8EEB9AEB909347
:101CC000B5048093B4041ADE10E0812F56DF1F5F45
:101CD0001630D9F735E0432E8091B4049091B504C5
:101CE0008E3B9A4B19F084E00E941E1C80913F01AC
:101CF00086FF2DC010E0812F93DD882341F11F5F07
:101D00001630C9F783DD10E00FC081E090E065DD9B
:101D100001E0010F612F81E098EF56DD063009F4F4
:101D200000E00E94101C102F80913E01882321F0BA
:101D300080913F0187FFE9CF5FDD80913F0187FD03
:101D400005C081E090E030DF0E94121C30DF8091FE
:101D50003F0187FD2CDF2DDD60932103709322036B
:101D6000809323039093240380913F0180FD5FDDE6
:101D7000F12CE12C0DE411E0D8018C91882349F17C
:101D800013968C91873319F548EC50E060E070E0D1
:101D9000C7018A5D9C4FD7DC40E050E0BA01C70123
:101DA000845D9C4FD0DCF80182819481F701EB5D6A
:101DB000FC4F90838150823050F0D80115968C9161
:101DC00087FFAAC486FF03C032DD0E94141CD8011D
:101DD0001C920E5C1F4FBBE0EB0EF11CE2E4EE1612
:101DE000F10451F6F89480913E0190913F01809169
:101DF0006C03892B80936C0310923F01809140010A
:101E000080936B03789480E24FDD882331F08091DA
:101E10006B03853009F08BC471DD80E145DD8823DB
:101E200039F08091190380FF90C48E7F809319034D
:101E300088E03ADD882389F11091190324DD8111AE
:101E40002CC010FF8DC4809106038F5F833008F093
:101E500084C4809306038091190384FD1EC0909171
:101E600014039923D1F0982F907EB9F483FF7FC497
:101E700080648093190380910903847E90912103EB
:101E80009370990F990F990F8260892B80930903A2
:101E9000809119038061809319031092BA0280EE39
:101EA000282E82E0382E95E2892E93E0992E61014A
:101EB000F12CE12CAA24A39427E0722EBE2C8E2DA7
:101EC000AFDC00911903882309F462C48E2D55DE1E
:101ED000D60113968C911397867F13968C9307FFE8
:101EE000E09228044FEFE41AF40A55E0C50ED11C25
:101EF0008BE0880E911C96E0E916F104F9F68091CA
:101F0000E00280932A038091E5028093350380915B
:101F1000EA02809340038091EF0280934B0380910B
:101F2000F402809356038091F902809361035090EC
:101F30002003852D90E0DC01A45DBB4F7D01B093B3
:101F40002B04A0932A041091190310FF1EC08BEBE1
:101F500092E016DC8823C9F08091060340ED57E03B
:101F600002C0559547958A95E2F7052E000C660B41
:101F7000770B8BEB92E0E7DB8091E30282FD05C0FB
:101F800080911A038C5F80931A0382E093E0F8DB60
:101F9000882309F45EC018601093190310E000E074
:101FA000D801A75FBB4F8C91E82FE7708E2E912C44
:101FB0009701280D391DF901608170E09B01265EB3
:101FC0003C4F5901F9019081492F50E087FB882748
:101FD00080F902C0559547958A95E2F7453051053D
:101FE00014F044E050E0D42E442309F46AC52C9147
:101FF0002695269526952F7030E0D701A20FB31FA6
:102000008C91A82FB0E08216930609F049C5469E30
:102010009001479E300D112420523D4FF9019381CC
:1020200090FF11C04A9EF0014B9EF00D1124E0522A
:10203000FD4F938193FD07C062E070E09DDCD50108
:102040008C918D198C930F5F1F4F0031110509F092
:10205000A7CF1091190310FF07C08FEB92E090DB20
:10206000882311F071DD62DC84EC92E089DB882347
:1020700029F148E853E160E070E084EC92E063DB32
:10208000812F86708630D1F48091DF028823B1F0F1
:10209000982F843008F093E0891B2091C3028217A7
:1020A00008F4282F821B8093DF021092C3028091D4
:1020B000CA02980F920F9093CA0280DCD090290434
:1020C000F7E0DF1609F475C017FF01C580912804F9
:1020D000873009F4FCC480910703982F96959F716F
:1020E0009F3008F4F4C4817C8093070340E050E003
:1020F000BA018BEC92E027DB03E68BEC92E040DB4D
:10210000882309F456C048E55BE160E070E08BECA1
:1021100092E019DB24E0D29EF0011124E956FB4F36
:102120008091170390E0880F991F0190F081E02DB6
:10213000E80FF91F80911603851987FD8A5F1092B9
:102140001303908195FF12C033E0E3E03D1508F0E2
:10215000E0E0F0E0E459FB4FE80FF11D87FDFA9550
:102160008081833609F4B5C48093130343E0D41609
:1021700051F013FB112710F981E04D1508F080E0B4
:1021800018131092CA028091CA02801708F0A4C4E2
:102190008091C902809317031092C902811109C06E
:1021A0008091C802809317031092C802811101C068
:1021B00092DB1091190315FF4EC080ED92E0E0DA3A
:1021C000882309F448C044E650E060E070E080ED08
:1021D00092E0B9DA8091110391E08927809311038D
:1021E0008091CF0220911904820F8093CF02873013
:1021F0000CF476C48FEF8093190480911203282F7A
:1022000030E0F901E45DFB4F9581429EF001439E71
:10221000F00D1124E052FD4F238120FF03C041E067
:1022200023FF02C040E08FEF499EF0011124E052ED
:10223000FD4F238120FF0AC023FD08C08F3F21F0FE
:102240002091210320FF04C0892F40E08F3F19F027
:1022500065E070E091DB16FF69C085ED92E090DAF1
:10226000882309F463C0D7011396DC90E0910A0338
:10227000F0910B033097B9F0808182FF52C49091A6
:10228000D402992309F444C41F7B1093190383706B
:10229000813049F4809109038695869586958370EF
:1022A00080930C0362DB10920B0310920A030091DF
:1022B000190306FF3BC052DB10910903812F837085
:1022C000813049F4412F46954695469543706CE020
:1022D00070E08D2D51DBE0912103E17003FFE1E01F
:1022E00080910903282F237030E0220F331FE20F63
:1022F000F32FF11D12FF1BC4E05EFB4FF0930B03A5
:10230000E0930A03408142FF11C01092D402E42FEF
:10231000E695E695E695E770EE0DFF2DF11D43700D
:102320008C7F482B6AE070E0808126DB10911903D6
:1023300017FF25C08BED92E023DA882301F1FDDA47
:1023400080910703982F9E73983309F0F3C31F778A
:102350001093190380910803815080930803181685
:1023600074F08091DA02882309F4EEC31092DA0245
:102370008091D902882309F4E7C387E0A1DA6AE1F2
:10238000A62E63E0B62E00EE12E06501912CF60158
:102390008081D80114969C911497890F808314969C
:1023A0001C9270901903B72DB2708B2E71FE1AC05B
:1023B000E1E0E915B8F4F5E09F16A1F09091DF0295
:1023C0009F3080F4482F50E02FE030E0291B310986
:1023D000421753070CF49A01920F9093DF02821B6D
:1023E000D6018C93F8018381D6019C9182FF19C498
:1023F0009F3038F48B7F838340E061E070E0892D6B
:10240000BBDA9394FFEFCF1ADF0A0B5F1F4F26E072
:102410009212BDCF8EEF92E0B3D9882331F148E814
:1024200053E160E070E08EEF92E08DD9EAE1F3E0F5
:102430008191882321F0DF01119781508C93D10184
:1024400013968C911397846013968C93B5E02B0EA2
:10245000311C20E233E02E173F0751F78091DF0255
:10246000882319F081508093DF0282E093E088D9BD
:10247000882339F048EC50E060E070E082E093E0BF
:1024800062D901DA81E090E0A8D910E0D5018D9100
:102490005D01882321F0612F80E090E695D91F5FD0
:1024A0001630A1F700E010E6882089F062E080E2B3
:1024B00093E08AD964E080E293E086D900E213E0F9
:1024C00072FE02C008E114E063E0C8017DD980918A
:1024D0002904873009F447C090911803911143C033
:1024E000B4E08B9FC0011124FC01E956FB4F209101
:1024F000170330E0220F331F40815181240F351F15
:10250000D9011196EC91E695E695E695F0E0E35851
:10251000FB4F8080912C609116031092150310924E
:10252000140374FE85C3B0E3BB8342E4342E612CF4
:10253000222423949C0127563B4F6901862F90E06B
:10254000AC01445D5B4F5A0151E0651276C3809146
:102550001303F501E80FF11D87FDFA95618163947E
:10256000F5E06F12EBCF75FE1FC00091120310E073
:10257000D0901103E1E0ED25045D1B4FE00FF12F3A
:10258000F11D60818CEE97E01FD985E090E0D110BD
:1025900002C084E090E0080F191FD8016C918CEE06
:1025A00097E012D90CEE17E08DE093E0E9D88111A5
:1025B0000CC0E0910C03F0E0EE0FFF1FEB58FB4F57
:1025C00000811181652DC801FFD876FE27C080915A
:1025D0000A0390910B03892B09F1E0910903AE2FB7
:1025E000A695A695A695A370B0E0AA0FBB1FAB5801
:1025F000BB4F0C9111961C91E370EE0FE160EE0D54
:10260000FF2DF11D6081C801DFD88091090383701F
:1026100009F033C3F7016281C801D6D877FE20C024
:10262000809108038230E4F48091070386958F71CE
:1026300000EE17E48F3010F000EF13E260912804F1
:10264000673011F0C801C0D860912704673011F0DD
:10265000C801BAD860912604673011F0C801B4D817
:1026600070FE0DC080910603813009F40DC308F49B
:1026700011C3823009F40BC360E0C801A5D80E94E1
:10268000101C05E213E0D12C7801B7E0EB0EF11C31
:10269000C70176D8882391F1F801468140684683C6
:1026A00046FB442740F94F5FB8016B5F7F4F8D2D8C
:1026B0000E94081C882339F0D80116968C91169731
:1026C0008F7B16968C9375D880902103909022036F
:1026D000A0902303B090240326E930E040E050E0CE
:1026E000281939094A095B0949015A01AB01BC01A2
:1026F000480D591D6A1D7B1DC70125D8055F1F4F59
:10270000D39436E0D312C0CF87E693E039D888233C
:1027100009F4E2CA4CDADECAF8018481853109F095
:1027200056CB8581853109F052CB41DA50CB8330CD
:1027300009F073CB8091190381FF04C08D7F8093D2
:1027400019036BCB8E7F8260FACF8D7F816080937F
:10275000190310922003EAD86BCB109206037BCBAF
:1027600011FF79CB84E018271093190374CB909153
:10277000BA02943020F080628093190389CB80687C
:102780008093190380910703817C8093070380CB9A
:10279000F6018381982F916093839091BA029F5F95
:1027A0009093BA02D4019C919A8396FB552450F8D9
:1027B00097FB662460F84E9CF0014F9CF00D1124AD
:1027C000E052FD4F208127FB222720F95216A1F06D
:1027D000192F1F7396FF43C0812F90E0F60192835B
:1027E00081834E9CF0014F9CF00D1124E052FD4F6F
:1027F000808150FA87F980834E9CF0014F9CF00D48
:102800001124E052FD4F808186FB992790F96912CF
:1028100069CB86FD07C0F701EC54FD4F808188230A
:1028200009F460CB4E9CD0014F9CB00D1124A052F6
:10283000BD4F8C918F7B60FE80648C93982F907C31
:1028400086FF13C126E02E9DF0012F9DF00D11246F
:10285000E057FD4F80818F73892B8C9343CBD6013A
:102860001196ED91FC91129719833197EC30F10597
:1028700008F0B7CFE354F74F10C2C908D408DB08FB
:10288000F6080C09570968097109900928093D09DA
:102890003809112321F08960F6018383A2CF877F55
:1028A000816013968C939DCFF6019481190F148348
:1028B0008B7F8160F2CF00FD94CF8FEB92E00E947E
:1028C0004000882309F48DCFF701E45DFB4FE10F51
:1028D000F11D80818093200337D940ED57E060E0FF
:1028E00070E08FEB92E00E9423007BCF909129044F
:1028F000973021F0809116038E1173CF8091CA0218
:10290000180F1093CA02B092160340E068E070E01E
:102910009730D9F053D865CF902F927209F061CFDC
:1029200082FD5FCF006200931903F701E45DFB4F66
:10293000E10FF11D8081809312037092CF02FFEFAF
:10294000F093190445E066E070E08B2D15D849CF6F
:10295000802F827409F045CF03FF43CF00640093BA
:1029600019038981809309030E942E014AE0EBCF6D
:1029700010930C030E94350134CF07FD32CF00685D
:10298000009319034BE066E070E08E2D0E943C013D
:10299000E092280470922704709226048981809323
:1029A00007030E941D0122E0209308031ACF15306F
:1029B00021F40F7D0093190314CF1A3019F4A0925B
:1029C000D4020FCF1B3009F00CCFA092D90209CF4F
:1029D0008091C302883C08F004CF180F1093C30203
:1029E00000CF80912904873009F4FBCE40918F02FB
:1029F00034E0839FC0011124FC01E956FB4F209174
:102A0000170330E0220F331F60817181260F371FBB
:102A1000D9012C9126FD4F5F482B69E070E095CFDE
:102A200080912904873009F0DCCEE12FE370E09338
:102A30008F02812F90E09595879595958795809346
:102A40002904E13031F4B2E0B0931703A0921803E7
:102A5000C8CE880F991F88599B4FE80FF92FF11D99
:102A60003297808180931703F1CF36E03E9DF001CD
:102A70003F9DF00D1124E057FD4F81818F73892B0D
:102A80008C938281938191838083848195819383C8
:102A90008283F701EC54FD4F80818150808322CAEC
:102AA0004A9EF0014B9EF00D1124E052FD4F8381B0
:102AB00082FDC9CA8481840F8483941BF5019083AD
:102AC000C2CA80911903877F80931903BCCA01E0B1
:102AD00014CB1092CA024ACB801B8093CA0269CBE6
:102AE00087FFB9CB9093190480912103E3E080FD27
:102AF00003C0E2E081FFE4E08091120390E0845D96
:102B00009B4FE80FF92FF11D808180931203A3CB17
:102B100090910903892F8B7F92FF84608093090332
:102B2000C2CB8370909109039C7F892BF7CFE65E1F
:102B3000FB4FE4CB982F96959F719D3108F40ACCFA
:102B4000817C8093070306CC20912804273071F400
:102B50001091190387E00E94E000809126048730DD
:102B600009F00DCC1F771093190309CC30E0F9015F
:102B7000E45DFB4F818145811281048190910703BF
:102B800090FF03C0542F482F852F429EF001439E93
:102B9000F00D1124E052FD4F238120FF18C0489E04
:102BA000F0011124E052FD4F238120FF10C0449E0C
:102BB000F0011124E052FD4F838180FDE0CB892F8D
:102BC00081709E7F80FF916090930703842F8730F0
:102BD00009F4D5CB0E94E0004091070340FD102F7F
:102BE000419EF0011124E052FD4F838180FD05C01C
:102BF00080912103837009F4C2CB80912804489E00
:102C0000F0011124E052FD4F938190FFB8CB91E089
:102C10009093DA021092D9026BE070E00E943C01BE
:102C2000AECB9F3008F4EDCB8460838341E0E5CBED
:102C3000EEE3EB8336EC332E7ACC982D937091F043
:102C40000EE214E0923059F0809115038F5F80936B
:102C50001503933069F0D6010C9111961C91C801AF
:102C60000E9464009594879495948794F50176CC9E
:102C7000209214030B81132DF2CF823009F0CECCB9
:102C8000D70114966C91C8CC00EC17E8F5CC00EC99
:102C900017ECF2CC00E016E8EFCCEE0FFF1F05902A
:062CA000F491E02D0994FF
:102CA600D105C00519081D59005915640064853DF4
:102CB600803D853D808D8095116840B511081518B9
:102CC60020AA80AD516A406A3508201A2D0A351AA5
:102CD600A0BBA01611780080406A406A110801184E
:102CE60000A8516A406A3508201A2D1A351AA0BB69
:102CF600A016351A209A20A2416A40721108412274
:102D0600512A40323508201A611A611A201A3108F0
:102D160031782080516A40721D080122112A003242
:102D2600C145D14DC0551508E0450508E0C3E0CEC4
:102D36003508201A31782080333315151B181125D4
:102D4600852D9C24A808A31381099A120105010266
:102D56001E2C240E16001C0501070707072C04006D
:102D6600010203040500010203040500000000013E
:102D7600000300020003000200020002000300013B
:102D8600000300040004000400050006000300061A
:102D96000003000600030004000500090E060B00F0
:102DA600FFFF63010100FFFFBC63EC27C8CFD027FC
:102DB6004401511112226645468A9A054110203176
:102DC60075C54DD11D5554151652E103C007C503EF
:102DD6002802AF03C046A5032825910320058503D5
:072DE60028446D03004600C4
:0400000300001700E2
:00000001FF
