:1017000001C0000014E0ADE6B3E0E2EAF5E102C09A
:1017100005900D92A83BB107D9F723E0AEE7B2E000
:1017200001C01D92AD36B207E1F7B6C2EDE4F1E0BB
:10173000108212AA1092B1011092E30110921502C8
:101740001092470208950F931F9300912103109167
:1017500022032091230330912403400F511F621F65
:10176000731FFC0140835183628373831F910F9128
:10177000089540EC57E269E070E087E693E0E3CF3C
:101780000F931F93FC0181E000811181228133813D
:10179000409121035091220360912303709124030F
:1017A000041715072607370708F080E01F910F91EF
:1017B0000895F89460913101709132018091330164
:1017C0009091340178940895E62FF0E0EE0FFF1F1A
:1017D000E050FF4F9183808308950F931F93CF9321
:1017E0008C01C0E06C2FC801EFDFCF5FC630D1F7AE
:1017F000CF911F910F9108958CE0E2E8F2E0A0E014
:10180000B1E001900D928A95E1F708958CE0E0E057
:10181000F1E0A2E8B2E001900D928A95E1F7089517
:101820002BE0829FC00111248A5D9C4FA9CF80913B
:101830008E02882359F010928E0281E0909141012E
:10184000911103C081E080934101089580E0F6CFBB
:1018500090916C03282F2095292320936C039823C3
:1018600081E009F480E00895909125049093240488
:10187000909126049093250480932604089587E090
:10188000809327041092CA021092C3021092C802D9
:101890001092C90210921403809119038F7E8093D5
:1018A0001903089510921903E0EEF2E014821186F4
:1018B0001686138A108E158EEAE1F3E010821182EB
:1018C00012821382148215821092DF02D8DF1092E6
:1018D0000603089548EB5BE060E070E08FEB92E078
:1018E00032CF8091070386958F7148E552E060E022
:1018F00070E08F3020F048EE53E060E070E08BED58
:1019000092E021CF40ED57E060E070E085ED92E09D
:101910001ACF40ED57E060E070E08DE093E013CF28
:10192000282F30E095E0899FD0011124A052BD4FAF
:1019300013968C9180FF15C0D901AC54BD4F8C918A
:10194000833078F4F901EE0FFF1FE20FF31FE80F69
:10195000F11DEE0FFF1FE057FD4F608341838F5F46
:101960008C930895EF92FF920F931F93CF93DF9381
:10197000C091CA0280912704873051F5CC2309F425
:10198000B0C02091190321FFACC090912003892F92
:1019900090E030912103E32FE170F0E0880F991F70
:1019A000E80FF91FEE0FFF1F23FF6CC0E25BFB4F38
:1019B000808180932704873009F493C010928F02AE
:1019C0001092170383E08093160381E0809318033D
:1019D0004091C30280911503480F4093C3024423F2
:1019E00039F067E070E0809116039ADF1092C3022D
:1019F000C23008F476C090911703E091270484E088
:101A0000E89FF0011124E556FB4F092F10E0000F6D
:101A1000111F20813181020F131FDFEFDC0F81E0E6
:101A20008093CA02F8018081282F237071F590916C
:101A30001803911152C087FDD695DD2309F451C0DA
:101A4000C091130382E0F82EFC0ECB5FEE24E394EA
:101A5000F8018181877090E030E08E219323892BFB
:101A600061F0E0911603F0E0E65DFB4FEF0DF11D34
:101A70004D2F64E070E0808153DFF394EE0CFC1294
:101A8000E7CF2FC0EA5CFB4F93CFD33040F12091DA
:101A90001803222329F010921803DCEFDC0FCBCFC0
:101AA00084FF06C02091C802211114C09093C8027F
:101AB000282F2370382F3C7049F03091210330FFDC
:101AC00005C0382F369536953370230F920F9093BB
:101AD0001703E3CF9093C902EBCFD330E0F6C09366
:101AE000CA02DF91CF911F910F91FF90EF9008955F
:101AF0001F93CF93DF9310912003C12FD3E04D2F7D
:101B000063E070E08C2F0CDFD150D7FDD5E0CF5FC4
:101B1000C63008F0C0E0C113F2CFDF91CF911F9122
:101B20000895282F30E0F901EC54FD4F108295E024
:101B3000899FF0011124E052FD4F10828BE0829FBB
:101B4000F001839FF00D1124EB5DFC4F1582089589
:101B500044DE0C94101CCF92DF92EF92FF92CF9351
:101B6000DF930E94141C52DED5E0C0E081E098EFC4
:101B7000EFDF42E065E074E08C2F0E94081CCF5F2D
:101B8000C630A1F7D15089F781E090E0E1DFF89409
:101B9000C0903101D0903201E0903301F0903401D7
:101BA000789410923F01C2DD81E0809341018091E1
:101BB0003F0180FF28C0F894C0923101D0923201D9
:101BC000E0923301F09234010E94141C789481E079
:101BD00080938E02CEDDAADDD5E0C0E08FEF9FEFCF
:101BE000B7DF42E063E074E08C2F0E94081CCF5FF7
:101BF000C630A1F7D15089F7DF91CF91FF90EF90D8
:101C0000DF90CF90F9CD809141018823A1F2EDE4DE
:101C1000F1E080E09081992341F09481933321F4A5
:101C20009581933309F481E01082F29692E0E937CE
:101C3000F90781F7882309F4BACFBDCF8EE792E088
:101C40009FDD882341F140ED57E060E070E08EE7D2
:101C500092E079DD80912B03806480932B03809147
:101C600036038064809336038091410380648093BF
:101C7000410380914C03806480934C03809157030F
:101C80008064809357038091620380648093620331
:101C900070DD0C94141C0895CF93DF9300D01F9235
:101CA000CDB7DEB781E08093410183DD60932103EE
:101CB0007093220380932303909324035ADD8EEBC9
:101CC0009AEB9093B9048093B804ECDD10E0812F77
:101CD00028DF1F5F1630D9F735E0432E8091B80416
:101CE0009091B9048E3B9A4B19F084E00E941E1C1F
:101CF00080913F0186FF2DC010E0812F91DD882368
:101D000041F11F5F1630C9F781DD10E00FC081E09F
:101D100090E063DD01E0010F612F81E098EF54DD79
:101D2000063009F400E00E94101C102F80913E0143
:101D3000882321F080913F0187FFE9CF5DDD80910D
:101D40003F0187FD05C081E090E002DF0E94121C88
:101D500002DF80913F0187FDFEDE2BDD60932103D2
:101D600070932203809323039093240380913F0177
:101D700080FD64DFF12CE12C0DE411E0D8018C91A1
:101D8000882331F113968C91873301F548EC50E0AC
:101D900060E070E0C7018A5D9C4FD5DC40E050E018
:101DA000BA01C701845D9C4FCEDCF8018281948129
:101DB000F701EB5DFC4F90838150823038F0D80101
:101DC00015968C9187FFB0C486FD38DFD8011C9230
:101DD0000E5C1F4FBBE0EB0EF11CE2E4EE16F104CB
:101DE00069F6F89480913E0190913F0180916C03D7
:101DF000892B80936C0310923F0180914001809366
:101E00006B03789482E024DD81114CDD80E220DDDB
:101E1000882359F080916B03833039F48091190342
:101E200081FF8DC48D7F8093190380E111DD8823AC
:101E300039F08091190380FF85C48E7F8093190348
:101E400088E006DD882389F110911903F0DC811107
:101E50002CC010FF82C4809106038F5F833008F08E
:101E600079C4809306038091190384FD1EC090916C
:101E700014039923D1F0982F907EB9F483FF74C492
:101E800080648093190380910903847C90912103DD
:101E90009770990F990F990F8260892B809309038E
:101EA000809119038061809319031092BA0280EE29
:101EB000282E82E0382E95E2892E93E0992E61013A
:101EC000F12CE12CAA24A39427E0722EBE2C8E2D97
:101ED000A7DC00911903882309F457C48E2D21DE55
:101EE000D60113968C911397867F13968C9307FFD8
:101EF000E09226044FEFE41AF40A55E0C50ED11C17
:101F00008BE0880E911C96E0E916F104F9F68091B9
:101F1000E00280932A038091E5028093350380914B
:101F2000EA02809340038091EF0280934B038091FB
:101F3000F402809356038091F902809361035090DC
:101F40002003852D90E0DC01A65DBB4F7D01B093A1
:101F50002904A09328041091190310FF1EC08BEBD5
:101F600092E00EDC8823C9F08091060340ED57E033
:101F700002C0559547958A95E2F7052E000C660B31
:101F8000770B8BEB92E0DFDB8091E30282FD05C0F3
:101F900080911A038C5F80931A0382E093E0F0DB58
:101FA000882309F45EC018601093190310E000E064
:101FB000D801A95FBB4F8C91E82FE7708E2E912C32
:101FC0009701280D391DF901608170E09B01265EA3
:101FD0003C4F5901F9019081492F50E087FB882738
:101FE00080F902C0559547958A95E2F7453051052D
:101FF00014F044E050E0D42E442309F460C52C9141
:102000002695269526952F7030E0D701A20FB31F95
:102010008C91A82FB0E08216930609F03FC5469E2A
:102020009001479E300D112420523D4FF9019381BC
:1020300090FF11C04A9EF0014B9EF00D1124E0521A
:10204000FD4F938193FD07C062E070E069DCD5012C
:102050008C918D198C930F5F1F4F0031110509F082
:10206000A7CF1091190310FF07C08FEB92E088DB18
:10207000882311F03DDD2EDC84EC92E081DB8823A7
:1020800029F148E853E160E070E084EC92E05BDB2A
:10209000812F86708630D1F48091DF028823B1F0E1
:1020A000982F843008F093E0891B2091C302821797
:1020B00008F4282F821B8093DF021092C3028091C4
:1020C000CA02980F920F9093CA024CDCD09027045A
:1020D000F7E0DF1609F475C017FFF7C480912604F6
:1020E000873009F4F2C480910703982F96959F7169
:1020F0009F3008F4EAC4817C8093070340E050E0FD
:10210000BA018BEC92E01FDB03E68BEC92E038DB4C
:10211000882309F456C048E55BE160E070E08BEC91
:1021200092E011DB24E0D29EF0011124E556FB4F32
:102130008091170390E0880F991F0190F081E02DA6
:10214000E80FF91F80911603851987FD8A5F1092A9
:102150001303908195FF12C033E0E3E03D1508F0D2
:10216000E0E0F0E0E659FB4FE80FF11D87FDFA953E
:102170008081833609F4ABC48093130343E0D41603
:1021800051F013FB112710F981E04D1508F080E0A4
:1021900018131092CA028091CA02801708F09AC4DC
:1021A0008091C902809317031092C902811109C05E
:1021B0008091C802809317031092C802811101C058
:1021C0005EDB1091190315FF4EC080ED92E0D8DA66
:1021D000882309F448C044E650E060E070E080EDF8
:1021E00092E0B1DA8091110391E089278093110385
:1021F0008091CF0220911704820F8093CF02873005
:102200000CF46CC48FEF8093170480911203282F75
:1022100030E0F901E65DFB4F9581429EF001439E5F
:10222000F00D1124E052FD4F238120FF03C041E057
:1022300023FF02C040E08FEF499EF0011124E052DD
:10224000FD4F238120FF0AC023FD08C08F3F21F0EE
:102250002091210320FF04C0892F40E08F3F19F017
:1022600065E070E05DDB16FF69C085ED92E088DA1D
:10227000882309F463C0D7011396DC90E0910A0328
:10228000F0910B033097B9F0808182FF48C49091A0
:10229000D402992309F43AC41F7B10931903837065
:1022A000813049F4809109038695869586958770DB
:1022B00080930C032EDB10920B0310920A03009103
:1022C000190306FF3BC01EDB10910903812F8370A9
:1022D000813049F4412F46954695469547706BE00D
:1022E00070E08D2D1DDBE0912103E17003FFE1E043
:1022F00080910903282F237030E0220F331FE20F53
:10230000F32FF11D12FF11C4E25EFB4FF0930B039C
:10231000E0930A03408142FF11C01092D402E42FDF
:10232000E695E695E695E770EE0DFF2DF11D4370FD
:102330008C7F482B6AE070E08081F2DA10911903FB
:1023400017FF25C08BED92E01BDA882301F1C9DA73
:1023500080910703982F9E73983309F0E9C31F7784
:102360001093190380910803815080930803181675
:1023700074F08091DA02882309F4E4C31092DA023F
:102380008091D902882309F4DDC387E06DDA6AE120
:10239000A62E63E0B62E00EE12E06501912CF60148
:1023A0008081D80114969C911497890F808314968C
:1023B0001C9270901903B72DB2708B2E71FE1AC04B
:1023C000E1E0E915B8F4F5E09F16A1F09091DF0285
:1023D0009F3080F4482F50E02FE030E0291B310976
:1023E000421753070CF49A01920F9093DF02821B5D
:1023F000D6018C93F8018381D6019C9182FF0FC492
:102400009F3038F48B7F838340E061E070E0892D5A
:1024100087DA9394FFEFCF1ADF0A0B5F1F4F26E096
:102420009212BDCF8EEF92E0ABD9882331F148E80C
:1024300053E160E070E08EEF92E085D9EAE1F3E0ED
:102440008191882321F0DF01119781508C93D10174
:1024500013968C911397846013968C93B5E02B0E92
:10246000311C20E233E02E173F0751F78091DF0245
:10247000882319F081508093DF0282E093E080D9B5
:10248000882339F048EC50E060E070E082E093E0AF
:102490005AD9CDD981E090E0A0D910E0D5018D9135
:1024A0005D01882321F0612F80E090E68DD91F5FC8
:1024B0001630A1F700E010E6882089F062E080E2A3
:1024C00093E082D964E080E293E07ED900E213E0F9
:1024D00072FE02C008E114E063E0C80175D9809182
:1024E0002704873009F447C090911803911143C025
:1024F000B4E08B9FC0011124FC01E556FB4F2091F5
:10250000170330E0220F331F40815181240F351F04
:10251000D9011196EC91E695E695E695F0E0ED5738
:10252000FB4F8080912C609116031092150310923E
:10253000140374FE7BC3B0E3BB8342E4342E612CEE
:10254000222423949C0123563B4F6901862F90E05F
:10255000AC01465D5B4F5A0151E065126CC380913E
:102560001303F501E80FF11D87FDFA95618163946E
:10257000F5E06F12EBCF75FE1FC00091120310E063
:10258000D0901103E1E0ED25065D1B4FE00FF12F28
:10259000F11D60818CEE97E017D985E090E0D110B5
:1025A00002C084E090E0080F191FD8016C918CEEF6
:1025B00097E00AD90CEE17E08DE093E0E1D88111A5
:1025C0000CC0E0910C03F0E0EE0FFF1FED58FB4F45
:1025D00000811181652DC801F7D876FE27C0809152
:1025E0000A0390910B03892B09F1E0910903AE2FA7
:1025F000A695A695A695A770B0E0AA0FBB1FAD58EB
:10260000BB4F0C9111961C91E370EE0FE160EE0D43
:10261000FF2DF11D6081C801D7D880910903837017
:1026200009F029C3F7016281C801CED877FE20C026
:10263000809108038230E4F48091070386958F71BE
:1026400000EE17E48F3010F000EF13E260912604E3
:10265000673011F0C801B8D860912504673011F0D7
:10266000C801B2D860912404673011F0C801ACD819
:1026700070FE0DC080910603813009F403C308F495
:1026800007C3823009F401C360E0C8019DD80E94ED
:10269000101C05E213E0D12C7801B7E0EB0EF11C21
:1026A000C7016ED8882391F1F801468140684683BE
:1026B00046FB442740F94F5FB8016B5F7F4F8D2D7C
:1026C0000E94081C882339F0D80116968C91169721
:1026D0008F7B16968C936DD8809021039090220367
:1026E000A0902303B090240326E930E040E050E0BE
:1026F000281939094A095B0949015A01AB01BC0192
:10270000480D591D6A1D7B1DC7011DD8055F1F4F50
:10271000D39436E0D312C0CF87E693E031D8882334
:1027200009F4DCCA18DAD8CAF8018481853109F0C5
:102730004DCB8581853109F049CB0DDA47CB8E7FB2
:10274000826071CB8D7F816080931903109220038A
:10275000C1D876CB1092060386CB11FF84CB84E0E0
:102760001827109319037FCB9091BA02943020F070
:1027700080628093190394CB8068809319038091C1
:102780000703817C809307038BCBF6018381982F0D
:10279000916093839091BA029F5F9093BA02D401A3
:1027A0009C919A8396FB552450F897FB662460F819
:1027B0004E9CF0014F9CF00D1124E052FD4F208102
:1027C00027FB222720F95216A1F0192F1F7396FF1D
:1027D00043C0812F90E0F601928381834E9CF001EB
:1027E0004F9CF00D1124E052FD4F808150FA87F983
:1027F00080834E9CF0014F9CF00D1124E052FD4F60
:10280000808186FB992790F9691274CB86FD07C0F9
:10281000F701EC54FD4F8081882309F46BCB4E9C6B
:10282000D0014F9CB00D1124A052BD4F8C918F7BD5
:1028300060FE80648C93982F907C86FF14C126E004
:102840002E9DF0012F9DF00D1124E057FD4F80814A
:102850008F73892B8C934ECBD6011196ED91FC9101
:10286000129719833197EC30F10508F0B7CFE65491
:10287000F74F11C2C608D108D808F308090955094D
:1028800066096F098E09260936093B09112321F0D3
:102890008960F6018383A2CF877F816013968C9332
:1028A0009DCFF6019481190F14838B7F8160F2CF45
:1028B00000FD94CF8FEB92E00E944000882309F442
:1028C0008DCFF701E65DFB4FE10FF11D8081809315
:1028D00020030ED940ED57E060E070E08FEB92E00E
:1028E0000E9423007BCF90912704973021F08091A4
:1028F00016038E1173CF8091CA02180F1093CA026B
:10290000B092160340E068E070E09730D9F02AD822
:1029100065CF902F927209F061CF82FD5FCF006288
:1029200000931903F701E65DFB4FE10FF11D808174
:10293000809312037092CF02FFEFF093170445E0EB
:1029400066E070E08B2D0E94100148CF802F8274CA
:1029500009F044CF03FF42CF00640093190389813B
:10296000809309030E9402014AE0EACF10930C030E
:102970000E94090133CF07FD31CF0068009319038E
:102980004CE066E070E08E2D0E941001E09226047B
:1029900070922504709224048981809307030E9419
:1029A000F10022E02093080319CF153021F40F7DA8
:1029B0000093190313CF1A3019F4A092D4020ECF4A
:1029C0001C3009F00BCFA092D90208CF8091C3022E
:1029D000883C08F003CF180F1093C302FFCE8091FC
:1029E0002704873009F4FACE40918F0234E0839FA8
:1029F000C0011124FC01E556FB4F2091170330E084
:102A0000220F331F60817181260F371FD9012C914E
:102A100026FD4F5F482B69E070E094CF809127043A
:102A2000873009F0DBCEE12FE370E0938F02812F36
:102A300090E0959587959595879580932704E1304B
:102A400031F4B2E0B0931703A0921803C7CE880FF9
:102A5000991F8A599B4FE80FF92FF11D32978081FA
:102A600080931703F1CF36E03E9DF0013F9DF00DBE
:102A70001124E057FD4F81818F73892B8C938281C4
:102A80009381918380838481958193838283F701ED
:102A9000EC54FD4F8081815080832CCA4A9EF00106
:102AA0004B9EF00D1124E052FD4F838182FDD3CA6D
:102AB0008481840F8483941BF5019083CCCA809118
:102AC0001903877F80931903C6CA01E01ECB1092B9
:102AD000CA0254CB801B8093CA0273CB87FFC3CB3F
:102AE0009093170480912103E3E080FD03C0E2E0AE
:102AF00081FFE4E08091120390E0865D9B4FE80F38
:102B0000F92FF11D808180931203ADCB90910903C1
:102B1000892F8B7F92FF846080930903CCCB8370D5
:102B2000909109039C7F892BF7CFE85EFB4FEECB9A
:102B3000982F96959F719D3108F414CC817C8093D9
:102B4000070310CC20912604273071F4109119034B
:102B500087E00E94B40080912404873009F017CCEC
:102B60001F771093190313CC30E0F901E65DFB4F9A
:102B700081814581128104819091070390FF03C0F8
:102B8000542F482F852F429EF001439EF00D1124B3
:102B9000E052FD4F238120FF18C0489EF001112410
:102BA000E052FD4F238120FF10C0449EF00111240C
:102BB000E052FD4F838180FDEACB892F81709E7F9B
:102BC00080FF916090930703842F873009F4DFCB57
:102BD0000E94B4004091070340FD102F419EF00178
:102BE0001124E052FD4F838180FD05C080912103B7
:102BF000837009F4CCCB80912604489EF001112407
:102C0000E052FD4F938190FFC2CB91E09093DA02A6
:102C10001092D9026CE070E00E941001B8CB9F3096
:102C200008F4F7CB8460838341E0EFCBEEE3EB83E2
:102C300036EC332E84CC982D937091F00EE214E094
:102C4000923059F0809115038F5F80931503933074
:102C500069F0D6010C9111961C91C8010E94640084
:102C60009594879495948794F50180CC20921403D1
:102C70000B81132DF2CF823009F0D8CCD7011496F6
:102C80006C91D2CC08EC17ECFFCC00EE1FEFFCCC23
:102C900000E016E6F9CCEE0FFF1F0590F491E02D51
:022CA000099495
:102CA200D105C00519081D59005915640064853DF8
:102CB200803D853D808D8095116840B511081518BD
:102CC20020AA80AD516A406A3508201A2D0A351AA9
:102CD200A0BBA01611780080406A406A1108011852
:102CE20000A8516A406A3508201A2D1A351AA0BB6D
:102CF200A016351A209A20A2516A40721108C045C6
:102D02001108151802B801100DA809A805A800801D
:102D120000A8516A40721D080122112A0032C145E1
:102D2200D14DC0551508E0450508E0BBE016350851
:102D3200201A31782080333315151B181125852D63
:102D42009C24A808A31381099A12010501021E2CD2
:102D5200240E16001C0501070707072A04000102BA
:102D62000304050001020304050000000001000342
:102D7200000200030002000200020003000100033F
:102D8200000400040004000500060003000600031E
:102D9200000600030004000500090E040000FFFF06
:102DA20063010100FFFF40209C8FEC27C8CFD02792
:102DB20038D23611BCEE4401511112226645468AC0
:102DC2009A054110203175C54DD11D555415DF03AB
:102DD200C007C5032802AF03C046A50328259103F7
:0B2DE2002005850328446D0300460017
:0400000300001700E2
:00000001FF
